:400000000010002011000000FD020000FD02000010B500F07BF9C04670B5164C23688022D20213432360182000F080FC2268124B13402360114A124B1A601022114B1A6056
:400040001032114B1A6082221206104B1A60002525600F4A0F4B1A600F4A104B1A601049092000F009FC092000F0F0FB0D4B1D6070BDC04600010B40FFFFFBFF0600008085
:4000800004010B400C0202401C02024008010B400E0000800000024016000080400002403D0B00000C020B4010B572B600240FE030486200131959000B00411889881A5A1B
:4000C000C31858880004104300F0F8F80134E4B2012CEDD927490C3127480C3000F0D4F8264A274B1A600322264B1A60264A274B1A6099231B04264A13602649264A116066
:40010000264A1360C0218902254A1160254A1360254A136080221206244B1A6024490B783C22934314221343DBB20B70214A117816230B43DBB2137071221F4B1A601F4A06
:400140001F4B1A6001231F4A136006211E4A11601E4A13601E491F4A11601F4A1360D3221E4B1A601E4A1F4B1A60FFF755FF00F0BBF810BDD011000050120000030030004F
:400180000000014004000140EEEE00300C00014000500F400000540C08500F4010500F4018500F4020500F4030500F4038500F4001700F4000700F400000044006200B00FB
:4001C00008000440000104400801044000020440B06DDB00080204401802044000030440A42DC8000803044010B5064C2378002B07D1054B002B02D0044800E000BF0123F7
:40020000237010BD4001002000000000CC110000084B10B5002B03D00749084800E000BF07480368002B00D110BD064B002BFBD09847F9E70000000044010020CC11000000
:40024000C00000200000000000B583B000F0B8F801AA0321032000F049F900F04BFD00F059FD00F06FFE62B6002000F05DFD0100002000F06FFD801200B2013001AB9870EF
:40028000642000F031FBEFE7F0B50025002711E0BB00C658F3B2FF22964308E06A008A181478A419527822700135013BDBB2002BF4D10137052FEBD9F0BDC04610B50A0034
:4002C000002100F07BFF10BD064B1B68002803D080221206134301E05B005B08014A13607047C04680031A4010B50122024B1A600120FFF7E9FF10BD00031A4010B500F043
:4003000031FF03680C2B00D1FEE7FEE770B50F4E0F4D13E029686B68AC68002202E001C901C30432A242FAD1E868002202E0002102C304328242FAD11035013E002EE9D125
:4003400000F016FFFFF780FFFEE7C04601000000C812000010B500230AE0032B03D89A000949505800E009489900094A885001332F2BF2D9FFF798FE8022D20511680123DE
:400380000B43136010BDC04600000000FD0200000000002010B50B2000F058FA10BDC04610B500F03BF810BD10B5044A1368802109060B431360FFF7EDFF10BD00000740DB
:4003C00010B5064B1B78002B04D1FFF7E9FF0122024B1A70FFF7E8FF10BDC0465C0100200A4B1B68DB050DD5094B1B685B0409D4064B1968074A0A401A601A68802149004F
:400400000A431A600222044B1A6070470000074060000740FFFEFFFF6C00074010B500241C4B1C601C4A1D4B1A601D4A11680C230B4313601B4B1C4A13601C4A14601C4953
:400440001C4A11601C4A13601C4B1C600B2000F007FA03210B2000F021FA19490B2000F00BFA184B1C60184B1C605222FF32174B1A60174B1C60174B1C60174B1C60174BB6
:400480001C70174B1C70174B1C80174B00221A7010BDC046000007400008004060000740700007400701008000030740040307406C00FE001003074000020740040207407C
:4004C0001D050000C80E0740880E0740480F0740080F0740C80F0740880F074090010020940100208E0100208C01002070B506000D00141E0BD00B2000F0B2F9044B1C6050
:40050000044B1E80044B1D800B2000F09FF970BD980100209C0100209201002070B5AC4B1B68002B00D09847AA4B1C88AA4B1D68AA4B1E680223FF331D4242D0A84A13689D
:400540005B005B081360A74B1B789B0620D5A54A137820218B431370117810230B43DBB21370A14B1B68DB060CD4A04B1A78994B1B889A420CD09B4A117808230B43DBB2A9
:40058000137005E0974A117802230B43DBB21370974A1168974B0B4013600023964A1360914A13609549964A116096498A4A1160954A13708A4A1368802109060B431360B3
:4005C00003E1F30602D50022904B1A600A23334200D190E08E4B1B685B0756D58D4B1B68894A1278002A16D0012A47D18A4A1288002A0DD00121894A1160894A12681219A6
:40060000DBB213700134844A1388013B138038E0FFF7E6FE35E0834A128893422BD201217E4A1160804A1288934202D2D21A92B200E0002278490A80072A03D80121724A2E
:40064000117014E0082A09D169490A68A020000202430A600021684A116008E064490A688020800102430A600821634A11605F4A13701C0005E0FFF7B3FE02E0002000F03C
:40068000F9F804225E4B1A6035E0594B1B689B0431D5B3070DD5654B1B680F211940544A1068544B03401360012014E00821012011E0594B1988083989B219800829F5D8B4
:4006C000002008E0564B1B681B19524A1268D2B21A70013401390029F4D1002808D1444A1368802109020B4313600022424B1A600C22434B1A60B30746D5EB0615D5002370
:400700003D4A1360384A1360384B1B789C4201D1022300E00A232B40324A11780B4320218B4313700022384B1A706B062AD52D4A117820230B43DBB213702C4B1B781C001C
:400740003B4A1268D20612D5364A1288D31A324A1380384B1A68802149020A431A601968354A0A401A6010221F4B1A6002E00422214B1A600123314A13602249164A1160D7
:40078000264A1360144B1D60144B1B685B071CD5214B1B88002B0CD0214B1B681B191B78DBB2274A136001341B4A1388013B138002E0FF22224B1A60224B1B680F221340A6
:4007C000082BE5D10132204B1A60024B1C8070BD600100208E010020400F0740000E07400000074094010020880F07408C01002060000740FF5FFFFFC80F0740ED0F000023
:40080000C00F0740FF0F000090010020880E0740CC0F074040030740640100206C000740980100209C01002092010020080307406400074004020740FFFFFEFF800E0740DF
:400840004002074008020740800F07401F2318401E3B8340014A13607047C04600E100E01F2318401E3B8340014A13607047C04680E100E001BE704770B504000D001F2871
:4008800002D90020FFF7F6FF1034A40080239B059C4664442068256070BDC04670B504000E00032902D90020FFF7E4FF1F2C02D90020FFF7DFFF03252540ED00063500F067
:4008C0005DFBA408A400074B9C46644421680323AB4099430B003100A9401943216000F051FB70BD00E400E010B5040006E0084B586800F039FB074B9C46644480231B024D
:400900009C42F4D8024B9868604300F02DFB10BDC40000200080FFFF10B5034B1B7B584300F022FB10BDC046C4000020F0B557464E46C0B483B0040000F020FB0190E71EAC
:400940002D2F74D83F4B1B78DBB29C4208D83E4B1B78DBB29A463D4B1B78DBB2994631E03B4B1B78DBB29C4208D83A4B1B78DBB29A46394B1B78DBB2994623E0374B1B78C2
:40098000DBB29C4208D8364B1B78DBB29A46354B1B78DBB2994615E0334B1B78DBB29C4208D8324B1B78DBB29A46314B1B78DBB2994607E02F4B1B78DBB29A462E4B1B7836
:4009C000DBB299462D4BDE5D2F2E09D92A2C07D919222B4B1A60052000F0C6FA192503E0274B1D683F231D40B54206D9234BDA5D234B1A60052000F0B7FA1F4B9C4664446F
:400A00002378DBB21F4A13601F4B52461A601F4B4A461A600520FFF77FFFB5420AD2174BDA5D174B1A60052000F09EFA02E00020FFF720FF019800F0A5FA03B00CBC9146A3
:400A40009A46F0BDC0F1FF0FC1F1FF0FC2F1FF0FC3F1FF0FC4F1FF0FC5F1FF0FC6F1FF0FC7F1FF0FC8F1FF0FC9F1FF0FCAF1FF0FCBF1FF0FCCF1FF0FCDF1FF0F7412000096
:400A80002CFF0B4028FF0B401CFF0B4020FF0B40034B1868C0231B02184000D00120704700010B4010B500F069FA044A1368C02109020B43136000F065FA10BD00010B406E
:400AC00010B500F05BFA08490A68084B1A408024E40122430A600A6813408022120213430B6000F04FFA10BD00010B40FF3FFFFF70B5050000F042FA0400FFF7C9FF00281A
:400B000003D0FFF7DDFF012100E0002108482840084A1568084B2B40184310601368012901D1FFF7BFFF200000F02CFA70BDC0460404040010020B40FBFBFBFF10B5244BBC
:400B40001B685B0715D5234B1B685B070ED5224BD969042001401F4C22688A432260DA698243DA611B69002B00D098470420FFF7BFFF174B1B685B0518D5164B1B685B0529
:400B800010D5154BD9698022D2001140114802688A430260D969114A0A40DA615B69002B00D098478020C000FFF7A2FF084B1B685B030CD5074B1B685B0304D5064B9B69CA
:400BC000002B00D098478020C002FFF791FF10BD10020B40D800002068010020FFFBFFFF10B503210E20FFF759FE21490E20FFF743FE01221F4B1A601F4B1B68002B01DA63
:400C00001E4900E01E491F4A13680B4313601E4A1E4B1A601E4A1F4B1A6000231E4A13601E4A1F490A601F490A601F4A13601F4A136001331E4A136002211E4A11601E4996
:400C400008681E4A024013430B6000230DE09A001B4951188020C000086058000024194944521948194950500133002BEFD010BDB10D000020001A4080031A40400E1053D2
:400C8000400E005300001A40D800008004001A400000FF0718001A401C001A400200020010001A4014001A4028021A4038021A4018021A40000F1A4030001A40FFFFFFDF5E
:400CC00080001A40A4010020204E0000A001002010B5074B1B68002B08DB054A1368802109060B4313600A20FFF716FE10BDC04600001A4010B5064B1B78002B04D1FFF743
:400D00006FFF0122024B1A70FFF7E2FF10BDC04688010020034A1368802149020B4313607047C04604001A4010B5041E02D00020FFF7A0FD002C07D1A400054B9C4664447A
:400D400020680004000C00E0002000B210BDC04680011A4070B504000D00002802D00020FFF788FD63000F4A995A09B2691A09B20D484843002906DDA3000C4A9A58D30F4F
:400D80009A18531006E0A300084A9A58D30F9A18521053421818A400044BE15800F0F6F800B270BDA401002010270000A0010020014B1A681A60704710021A4010B50C4C68
:400DC0002268C0218A4322602268A2398A43226021684300DBB220221343D8B2084320600120FFF799FD236820229343236010BD00020440F8B5274B1A68FE218A431A6052
:400E000025490868254A0240254802430A601A6840218A431A60196880220A431A60CA277F000020FFF778FD1A4C23682026334323600120FFF770FD1A4B1D682368B343D9
:400E400023600020FFF768FD10231D402368334323600120FFF760FD2368B3432360002D02D10A20FFF758FD013F002D01D0002FD7D1084B1A6880218A431A601A687E3170
:400E80008A431A60044A1168044B0B4006490B431360F8BD00020440080204400780FFFF4812000004020440B06D000010B50400FFF7A0FF2009FFF781FF0F202040FFF769
:400EC0007DFF10BD10B52820FFF70EFD0320FFF775FF0520FFF708FD0320FFF76FFF0F20FFF702FD0320FFF769FF0120FFF7FCFC0220FFF763FF0520FFF7F6FC0620FFF710
:400F0000D5FF0E20FFF7D2FF2C20FFF7CFFF0820FFF7CCFF0120FFF7C9FF0C20FFF7C6FF0320FFF7C3FF0520FFF7DEFC10BDC04610B50C20FFF7BAFF0122014B1A7010BD20
:400F40008901002010B5064B5B78002B04D1FFF7B9FF0122024B5A70FFF7EAFF10BDC04689010020000000000230800804D0C0460138FDD1C046C046C0467047EFF31080C4
:400F800072B6704780F310887047C04603460B437FD4002243088B4274D303098B425FD3030A8B4244D3030B8B4228D3030C8B420DD3FF22090212BA030C8B4202D31212C4
:400FC000090265D0030B8B4219D300E0090AC30B8B4201D3CB03C01A5241830B8B4201D38B03C01A5241430B8B4201D34B03C01A5241030B8B4201D30B03C01A5241C30A82
:401000008B4201D3CB02C01A5241830A8B4201D38B02C01A5241430A8B4201D34B02C01A5241030A8B4201D30B02C01A5241CDD2C3098B4201D3CB01C01A524183098B423F
:4010400001D38B01C01A524143098B4201D34B01C01A524103098B4201D30B01C01A5241C3088B4201D3CB00C01A524183088B4201D38B00C01A524143088B4201D34B00D8
:40108000C01A5241411A00D201465241104670475DE0CA0F00D04942031000D34042534000229C4603098B422DD3030A8B4212D3FC22890112BA030A8B420CD3890192114D
:4010C0008B4208D3890192118B4204D389013AD0921100E08909C3098B4201D3CB01C01A524183098B4201D38B01C01A524143098B4201D34B01C01A524103098B4201D3AF
:401100000B01C01A5241C3088B4201D3CB00C01A524183088B4201D38B00C01A5241D9D243088B4201D34B00C01A5241411A00D20146634652415B10104601D34042002B2D
:4011400000D54942704763465B1000D3404201B5002000F005F802BD0029F8D016E770477047C046014B18687047C0463C0100200E4B70B500251E000D4CE41AA410A54272
:4011800004D0AB00F35898470135F8E700F08AF8084B00251E00084CE41AA410A54204D0AB00F35898470135F8E770BDB0120000B0120000B0120000B812000003008218E4
:4011C000934202D019700133FAE770470000000000300F40000400400F4000048C08E410080114021C043001320434023E1558045F018101B101BF01D904DF0106080C0897
:401200000D801D0A1F10204038018102871089888C419A08A008AA08C040C2A0CE01E62009800A10511067408E10C250D420D8805F8083808740891095209740A980D62073
:40124000E280E640EC8009100B2060208B108C208D10C20AD802E002E204E60802310F400E320F4012330F4008400F400B410F400B430F40030405060708090A0B0C0E0F9A
:40128000101112131415161718191B1C1D1E1F2021222325262728292A2B2E2F3031323334354300F8B5C046F8BC08BC9E4670471102000055030000F8B5C046F8BC08BC07
:4012C0009E467047E9010000D8120000C0000020800000006800000000000000010000000000E02EC05D00001800000000366E0104040400000000000000000000000000C2
:401300000000000000000000000000000000000000000000A212000000000000000000000000000000000000000000000000000000000000000000000000000000000000F9
:401340000000000000000000000000000000000000000000DC0000200000000000000000000000000000000000000000000000000000000000000000000000000000000071
:40138000000000000000000000000000000000000000000000000000000000000000000000000000000000000000000000000000000000000000000000000000000000002D
:4013C00000000000000000000000000000000000000000000000000000000000000000000000000000000000000000000000000000000000000000000000000000000000ED
:4014000000000000000000000000000000000000000000000000000000000000000000000000000000000000000000000000000000000000000000000000000000000000AC
:40144000000000000000000000000000000000000000000000000000000000000000000000000000000000000000000000000000000000000000000000000000000000006C
:0200000490303A
:020000000B2BC8
:0200000490402A
:200000000000000000000000000000000000000000000000000000000000000000000000E0
:0200000490501A
:0C000000000204C81193110104CE1CBEC4
:0200000490600A
:0100000001FE
:00000001FF